{
  "_format": "hh-sol-artifact-1",
  "contractName": "GeoReferableNFT",
  "sourceName": "contracts/GeoReferableNFT.sol",
  "abi": [
    {
      "inputs": [
        {
          "internalType": "address",
          "name": "_fumi",
          "type": "address"
        },
        {
          "internalType": "address",
          "name": "_geoMath",
          "type": "address"
        },
        {
          "internalType": "address",
          "name": "_geoMetadata",
          "type": "address"
        },
        {
          "internalType": "string",
          "name": "chainName_",
          "type": "string"
        }
      ],
      "stateMutability": "nonpayable",
      "type": "constructor"
    },
    {
      "inputs": [],
      "name": "ECDSAInvalidSignature",
      "type": "error"
    },
    {
      "inputs": [
        {
          "internalType": "uint256",
          "name": "length",
          "type": "uint256"
        }
      ],
      "name": "ECDSAInvalidSignatureLength",
      "type": "error"
    },
    {
      "inputs": [
        {
          "internalType": "bytes32",
          "name": "s",
          "type": "bytes32"
        }
      ],
      "name": "ECDSAInvalidSignatureS",
      "type": "error"
    },
    {
      "inputs": [],
      "name": "ERC721EnumerableForbiddenBatchMint",
      "type": "error"
    },
    {
      "inputs": [
        {
          "internalType": "address",
          "name": "sender",
          "type": "address"
        },
        {
          "internalType": "uint256",
          "name": "tokenId",
          "type": "uint256"
        },
        {
          "internalType": "address",
          "name": "owner",
          "type": "address"
        }
      ],
      "name": "ERC721IncorrectOwner",
      "type": "error"
    },
    {
      "inputs": [
        {
          "internalType": "address",
          "name": "operator",
          "type": "address"
        },
        {
          "internalType": "uint256",
          "name": "tokenId",
          "type": "uint256"
        }
      ],
      "name": "ERC721InsufficientApproval",
      "type": "error"
    },
    {
      "inputs": [
        {
          "internalType": "address",
          "name": "approver",
          "type": "address"
        }
      ],
      "name": "ERC721InvalidApprover",
      "type": "error"
    },
    {
      "inputs": [
        {
          "internalType": "address",
          "name": "operator",
          "type": "address"
        }
      ],
      "name": "ERC721InvalidOperator",
      "type": "error"
    },
    {
      "inputs": [
        {
          "internalType": "address",
          "name": "owner",
          "type": "address"
        }
      ],
      "name": "ERC721InvalidOwner",
      "type": "error"
    },
    {
      "inputs": [
        {
          "internalType": "address",
          "name": "receiver",
          "type": "address"
        }
      ],
      "name": "ERC721InvalidReceiver",
      "type": "error"
    },
    {
      "inputs": [
        {
          "internalType": "address",
          "name": "sender",
          "type": "address"
        }
      ],
      "name": "ERC721InvalidSender",
      "type": "error"
    },
    {
      "inputs": [
        {
          "internalType": "uint256",
          "name": "tokenId",
          "type": "uint256"
        }
      ],
      "name": "ERC721NonexistentToken",
      "type": "error"
    },
    {
      "inputs": [
        {
          "internalType": "address",
          "name": "owner",
          "type": "address"
        },
        {
          "internalType": "uint256",
          "name": "index",
          "type": "uint256"
        }
      ],
      "name": "ERC721OutOfBoundsIndex",
      "type": "error"
    },
    {
      "inputs": [],
      "name": "EnforcedPause",
      "type": "error"
    },
    {
      "inputs": [],
      "name": "ExpectedPause",
      "type": "error"
    },
    {
      "inputs": [],
      "name": "ExternalTokenNotFound",
      "type": "error"
    },
    {
      "inputs": [],
      "name": "FirstReferenceMustBeSelf",
      "type": "error"
    },
    {
      "inputs": [],
      "name": "InitialReferenceCannotBeRemoved",
      "type": "error"
    },
    {
      "inputs": [],
      "name": "InvalidAddress",
      "type": "error"
    },
    {
      "inputs": [],
      "name": "InvalidColorIndex",
      "type": "error"
    },
    {
      "inputs": [],
      "name": "InvalidLatitude",
      "type": "error"
    },
    {
      "inputs": [],
      "name": "InvalidLongitude",
      "type": "error"
    },
    {
      "inputs": [],
      "name": "InvalidShortString",
      "type": "error"
    },
    {
      "inputs": [],
      "name": "InvalidSignature",
      "type": "error"
    },
    {
      "inputs": [],
      "name": "MismatchedLengths",
      "type": "error"
    },
    {
      "inputs": [],
      "name": "NoERC165Support",
      "type": "error"
    },
    {
      "inputs": [],
      "name": "NoReferencesProvided",
      "type": "error"
    },
    {
      "inputs": [],
      "name": "NotAContract",
      "type": "error"
    },
    {
      "inputs": [],
      "name": "NotERC5521",
      "type": "error"
    },
    {
      "inputs": [],
      "name": "NotOwnerNorApproved",
      "type": "error"
    },
    {
      "inputs": [
        {
          "internalType": "address",
          "name": "owner",
          "type": "address"
        }
      ],
      "name": "OwnableInvalidOwner",
      "type": "error"
    },
    {
      "inputs": [
        {
          "internalType": "address",
          "name": "account",
          "type": "address"
        }
      ],
      "name": "OwnableUnauthorizedAccount",
      "type": "error"
    },
    {
      "inputs": [
        {
          "internalType": "string",
          "name": "str",
          "type": "string"
        }
      ],
      "name": "StringTooLong",
      "type": "error"
    },
    {
      "inputs": [
        {
          "internalType": "uint256",
          "name": "value",
          "type": "uint256"
        },
        {
          "internalType": "uint256",
          "name": "length",
          "type": "uint256"
        }
      ],
      "name": "StringsInsufficientHexLength",
      "type": "error"
    },
    {
      "inputs": [],
      "name": "TextTooLong",
      "type": "error"
    },
    {
      "inputs": [],
      "name": "TooManyReferences",
      "type": "error"
    },
    {
      "inputs": [],
      "name": "TooManyTokensInTree",
      "type": "error"
    },
    {
      "anonymous": false,
      "inputs": [
        {
          "indexed": true,
          "internalType": "address",
          "name": "owner",
          "type": "address"
        },
        {
          "indexed": true,
          "internalType": "address",
          "name": "approved",
          "type": "address"
        },
        {
          "indexed": true,
          "internalType": "uint256",
          "name": "tokenId",
          "type": "uint256"
        }
      ],
      "name": "Approval",
      "type": "event"
    },
    {
      "anonymous": false,
      "inputs": [
        {
          "indexed": true,
          "internalType": "address",
          "name": "owner",
          "type": "address"
        },
        {
          "indexed": true,
          "internalType": "address",
          "name": "operator",
          "type": "address"
        },
        {
          "indexed": false,
          "internalType": "bool",
          "name": "approved",
          "type": "bool"
        }
      ],
      "name": "ApprovalForAll",
      "type": "event"
    },
    {
      "anonymous": false,
      "inputs": [
        {
          "indexed": false,
          "internalType": "uint256",
          "name": "_fromTokenId",
          "type": "uint256"
        },
        {
          "indexed": false,
          "internalType": "uint256",
          "name": "_toTokenId",
          "type": "uint256"
        }
      ],
      "name": "BatchMetadataUpdate",
      "type": "event"
    },
    {
      "anonymous": false,
      "inputs": [],
      "name": "EIP712DomainChanged",
      "type": "event"
    },
    {
      "anonymous": false,
      "inputs": [
        {
          "indexed": true,
          "internalType": "uint256",
          "name": "tokenId",
          "type": "uint256"
        },
        {
          "indexed": true,
          "internalType": "address",
          "name": "to",
          "type": "address"
        },
        {
          "indexed": true,
          "internalType": "address",
          "name": "from",
          "type": "address"
        },
        {
          "indexed": false,
          "internalType": "string",
          "name": "text",
          "type": "string"
        },
        {
          "indexed": false,
          "internalType": "string",
          "name": "h3r6",
          "type": "string"
        },
        {
          "indexed": false,
          "internalType": "string",
          "name": "h3r8",
          "type": "string"
        },
        {
          "indexed": false,
          "internalType": "string",
          "name": "h3r10",
          "type": "string"
        },
        {
          "indexed": false,
          "internalType": "string",
          "name": "h3r12",
          "type": "string"
        }
      ],
      "name": "FumiMinted",
      "type": "event"
    },
    {
      "anonymous": false,
      "inputs": [
        {
          "indexed": false,
          "internalType": "uint256",
          "name": "_tokenId",
          "type": "uint256"
        }
      ],
      "name": "MetadataUpdate",
      "type": "event"
    },
    {
      "anonymous": false,
      "inputs": [
        {
          "indexed": true,
          "internalType": "address",
          "name": "previousOwner",
          "type": "address"
        },
        {
          "indexed": true,
          "internalType": "address",
          "name": "newOwner",
          "type": "address"
        }
      ],
      "name": "OwnershipTransferred",
      "type": "event"
    },
    {
      "anonymous": false,
      "inputs": [
        {
          "indexed": false,
          "internalType": "address",
          "name": "account",
          "type": "address"
        }
      ],
      "name": "Paused",
      "type": "event"
    },
    {
      "anonymous": false,
      "inputs": [
        {
          "indexed": true,
          "internalType": "uint256",
          "name": "tokenId",
          "type": "uint256"
        },
        {
          "indexed": false,
          "internalType": "uint256",
          "name": "newRefCount",
          "type": "uint256"
        }
      ],
      "name": "RefCountUpdated",
      "type": "event"
    },
    {
      "anonymous": false,
      "inputs": [
        {
          "indexed": true,
          "internalType": "uint256",
          "name": "fromTokenId",
          "type": "uint256"
        },
        {
          "indexed": true,
          "internalType": "uint256",
          "name": "toTokenId",
          "type": "uint256"
        },
        {
          "indexed": false,
          "internalType": "uint256",
          "name": "distance",
          "type": "uint256"
        },
        {
          "indexed": false,
          "internalType": "bool",
          "name": "isInitialReference",
          "type": "bool"
        }
      ],
      "name": "ReferenceCreated",
      "type": "event"
    },
    {
      "anonymous": false,
      "inputs": [
        {
          "indexed": true,
          "internalType": "address",
          "name": "from",
          "type": "address"
        },
        {
          "indexed": true,
          "internalType": "address",
          "name": "to",
          "type": "address"
        },
        {
          "indexed": true,
          "internalType": "uint256",
          "name": "tokenId",
          "type": "uint256"
        }
      ],
      "name": "Transfer",
      "type": "event"
    },
    {
      "anonymous": false,
      "inputs": [
        {
          "indexed": true,
          "internalType": "uint256",
          "name": "tokenId",
          "type": "uint256"
        },
        {
          "indexed": false,
          "internalType": "uint256",
          "name": "newUniqueRefCount",
          "type": "uint256"
        }
      ],
      "name": "UniqueRefCountUpdated",
      "type": "event"
    },
    {
      "anonymous": false,
      "inputs": [
        {
          "indexed": false,
          "internalType": "address",
          "name": "account",
          "type": "address"
        }
      ],
      "name": "Unpaused",
      "type": "event"
    },
    {
      "anonymous": false,
      "inputs": [
        {
          "indexed": true,
          "internalType": "uint256",
          "name": "tokenId",
          "type": "uint256"
        },
        {
          "indexed": true,
          "internalType": "address",
          "name": "owner",
          "type": "address"
        },
        {
          "indexed": false,
          "internalType": "address[]",
          "name": "_address_referringList",
          "type": "address[]"
        },
        {
          "indexed": false,
          "internalType": "uint256[][]",
          "name": "_tokenIds_referringList",
          "type": "uint256[][]"
        },
        {
          "indexed": false,
          "internalType": "address[]",
          "name": "_address_referredList",
          "type": "address[]"
        },
        {
          "indexed": false,
          "internalType": "uint256[][]",
          "name": "_tokenIds_referredList",
          "type": "uint256[][]"
        }
      ],
      "name": "UpdateNode",
      "type": "event"
    },
    {
      "inputs": [
        {
          "internalType": "bytes",
          "name": "data",
          "type": "bytes"
        }
      ],
      "name": "_decodeReferenceData",
      "outputs": [
        {
          "internalType": "address[]",
          "name": "",
          "type": "address[]"
        },
        {
          "internalType": "uint256[][]",
          "name": "",
          "type": "uint256[][]"
        }
      ],
      "stateMutability": "pure",
      "type": "function"
    },
    {
      "inputs": [
        {
          "internalType": "address",
          "name": "to",
          "type": "address"
        },
        {
          "internalType": "uint256",
          "name": "tokenId",
          "type": "uint256"
        }
      ],
      "name": "approve",
      "outputs": [],
      "stateMutability": "nonpayable",
      "type": "function"
    },
    {
      "inputs": [
        {
          "internalType": "address",
          "name": "owner",
          "type": "address"
        }
      ],
      "name": "balanceOf",
      "outputs": [
        {
          "internalType": "uint256",
          "name": "",
          "type": "uint256"
        }
      ],
      "stateMutability": "view",
      "type": "function"
    },
    {
      "inputs": [],
      "name": "contractURI",
      "outputs": [
        {
          "internalType": "string",
          "name": "",
          "type": "string"
        }
      ],
      "stateMutability": "view",
      "type": "function"
    },
    {
      "inputs": [
        {
          "internalType": "address",
          "name": "target",
          "type": "address"
        },
        {
          "internalType": "uint256",
          "name": "tokenId",
          "type": "uint256"
        }
      ],
      "name": "createdTimestampOf",
      "outputs": [
        {
          "internalType": "uint256",
          "name": "",
          "type": "uint256"
        }
      ],
      "stateMutability": "view",
      "type": "function"
    },
    {
      "inputs": [
        {
          "internalType": "uint256",
          "name": "tokenId",
          "type": "uint256"
        }
      ],
      "name": "decodeTokenId",
      "outputs": [
        {
          "components": [
            {
              "internalType": "uint256",
              "name": "quadrant",
              "type": "uint256"
            },
            {
              "internalType": "int256",
              "name": "latitude",
              "type": "int256"
            },
            {
              "internalType": "int256",
              "name": "longitude",
              "type": "int256"
            },
            {
              "internalType": "int256",
              "name": "elevation",
              "type": "int256"
            },
            {
              "internalType": "uint256",
              "name": "colorIndex",
              "type": "uint256"
            },
            {
              "internalType": "uint256",
              "name": "tree",
              "type": "uint256"
            },
            {
              "internalType": "uint256",
              "name": "generation",
              "type": "uint256"
            }
          ],
          "internalType": "struct GeoReferableNFT.DecodedTokenData",
          "name": "",
          "type": "tuple"
        }
      ],
      "stateMutability": "view",
      "type": "function"
    },
    {
      "inputs": [],
      "name": "eip712Domain",
      "outputs": [
        {
          "internalType": "bytes1",
          "name": "fields",
          "type": "bytes1"
        },
        {
          "internalType": "string",
          "name": "name",
          "type": "string"
        },
        {
          "internalType": "string",
          "name": "version",
          "type": "string"
        },
        {
          "internalType": "uint256",
          "name": "chainId",
          "type": "uint256"
        },
        {
          "internalType": "address",
          "name": "verifyingContract",
          "type": "address"
        },
        {
          "internalType": "bytes32",
          "name": "salt",
          "type": "bytes32"
        },
        {
          "internalType": "uint256[]",
          "name": "extensions",
          "type": "uint256[]"
        }
      ],
      "stateMutability": "view",
      "type": "function"
    },
    {
      "inputs": [
        {
          "internalType": "int256",
          "name": "latitude",
          "type": "int256"
        },
        {
          "internalType": "int256",
          "name": "longitude",
          "type": "int256"
        }
      ],
      "name": "encodeTokenId",
      "outputs": [
        {
          "internalType": "uint256",
          "name": "",
          "type": "uint256"
        }
      ],
      "stateMutability": "pure",
      "type": "function"
    },
    {
      "inputs": [
        {
          "internalType": "uint256",
          "name": "tokenId",
          "type": "uint256"
        }
      ],
      "name": "getApproved",
      "outputs": [
        {
          "internalType": "address",
          "name": "",
          "type": "address"
        }
      ],
      "stateMutability": "view",
      "type": "function"
    },
    {
      "inputs": [
        {
          "internalType": "uint256",
          "name": "tokenId",
          "type": "uint256"
        }
      ],
      "name": "getGeneration",
      "outputs": [
        {
          "internalType": "uint256",
          "name": "",
          "type": "uint256"
        }
      ],
      "stateMutability": "view",
      "type": "function"
    },
    {
      "inputs": [
        {
          "internalType": "uint256",
          "name": "tokenId",
          "type": "uint256"
        }
      ],
      "name": "getTree",
      "outputs": [
        {
          "internalType": "uint256",
          "name": "",
          "type": "uint256"
        }
      ],
      "stateMutability": "view",
      "type": "function"
    },
    {
      "inputs": [
        {
          "internalType": "address",
          "name": "owner",
          "type": "address"
        },
        {
          "internalType": "address",
          "name": "operator",
          "type": "address"
        }
      ],
      "name": "isApprovedForAll",
      "outputs": [
        {
          "internalType": "bool",
          "name": "",
          "type": "bool"
        }
      ],
      "stateMutability": "view",
      "type": "function"
    },
    {
      "inputs": [
        {
          "internalType": "address",
          "name": "contractAddr",
          "type": "address"
        },
        {
          "internalType": "uint256",
          "name": "tokenId",
          "type": "uint256"
        }
      ],
      "name": "isReferenceValid",
      "outputs": [
        {
          "internalType": "bool",
          "name": "",
          "type": "bool"
        }
      ],
      "stateMutability": "view",
      "type": "function"
    },
    {
      "inputs": [
        {
          "internalType": "int256",
          "name": "latitude",
          "type": "int256"
        },
        {
          "internalType": "int256",
          "name": "longitude",
          "type": "int256"
        },
        {
          "internalType": "int256",
          "name": "elevation",
          "type": "int256"
        },
        {
          "internalType": "uint256",
          "name": "colorIndex",
          "type": "uint256"
        },
        {
          "internalType": "string",
          "name": "message",
          "type": "string"
        },
        {
          "components": [
            {
              "internalType": "string",
              "name": "h3r6",
              "type": "string"
            },
            {
              "internalType": "string",
              "name": "h3r8",
              "type": "string"
            },
            {
              "internalType": "string",
              "name": "h3r10",
              "type": "string"
            },
            {
              "internalType": "string",
              "name": "h3r12",
              "type": "string"
            }
          ],
          "internalType": "struct GeoReferableNFT.H3Params",
          "name": "h3",
          "type": "tuple"
        }
      ],
      "name": "mint",
      "outputs": [
        {
          "internalType": "uint256",
          "name": "",
          "type": "uint256"
        }
      ],
      "stateMutability": "nonpayable",
      "type": "function"
    },
    {
      "inputs": [
        {
          "internalType": "address[]",
          "name": "refAddresses",
          "type": "address[]"
        },
        {
          "internalType": "uint256[]",
          "name": "refTokenIds",
          "type": "uint256[]"
        },
        {
          "internalType": "int256",
          "name": "latitude",
          "type": "int256"
        },
        {
          "internalType": "int256",
          "name": "longitude",
          "type": "int256"
        },
        {
          "internalType": "int256",
          "name": "elevation",
          "type": "int256"
        },
        {
          "internalType": "uint256",
          "name": "colorIndex",
          "type": "uint256"
        },
        {
          "internalType": "string",
          "name": "message",
          "type": "string"
        },
        {
          "components": [
            {
              "internalType": "string",
              "name": "h3r6",
              "type": "string"
            },
            {
              "internalType": "string",
              "name": "h3r8",
              "type": "string"
            },
            {
              "internalType": "string",
              "name": "h3r10",
              "type": "string"
            },
            {
              "internalType": "string",
              "name": "h3r12",
              "type": "string"
            }
          ],
          "internalType": "struct GeoReferableNFT.H3Params",
          "name": "h3",
          "type": "tuple"
        }
      ],
      "name": "mintWithChain",
      "outputs": [
        {
          "internalType": "uint256",
          "name": "",
          "type": "uint256"
        }
      ],
      "stateMutability": "nonpayable",
      "type": "function"
    },
    {
      "inputs": [],
      "name": "name",
      "outputs": [
        {
          "internalType": "string",
          "name": "",
          "type": "string"
        }
      ],
      "stateMutability": "view",
      "type": "function"
    },
    {
      "inputs": [
        {
          "internalType": "address",
          "name": "owner",
          "type": "address"
        }
      ],
      "name": "nonces",
      "outputs": [
        {
          "internalType": "uint256",
          "name": "",
          "type": "uint256"
        }
      ],
      "stateMutability": "view",
      "type": "function"
    },
    {
      "inputs": [],
      "name": "owner",
      "outputs": [
        {
          "internalType": "address",
          "name": "",
          "type": "address"
        }
      ],
      "stateMutability": "view",
      "type": "function"
    },
    {
      "inputs": [
        {
          "internalType": "uint256",
          "name": "tokenId",
          "type": "uint256"
        }
      ],
      "name": "ownerOf",
      "outputs": [
        {
          "internalType": "address",
          "name": "",
          "type": "address"
        }
      ],
      "stateMutability": "view",
      "type": "function"
    },
    {
      "inputs": [],
      "name": "pause",
      "outputs": [],
      "stateMutability": "nonpayable",
      "type": "function"
    },
    {
      "inputs": [],
      "name": "paused",
      "outputs": [
        {
          "internalType": "bool",
          "name": "",
          "type": "bool"
        }
      ],
      "stateMutability": "view",
      "type": "function"
    },
    {
      "inputs": [
        {
          "internalType": "uint256",
          "name": "tokenId",
          "type": "uint256"
        }
      ],
      "name": "refCountOf",
      "outputs": [
        {
          "internalType": "uint256",
          "name": "",
          "type": "uint256"
        }
      ],
      "stateMutability": "view",
      "type": "function"
    },
    {
      "inputs": [
        {
          "internalType": "address",
          "name": "target",
          "type": "address"
        },
        {
          "internalType": "uint256",
          "name": "tokenId",
          "type": "uint256"
        }
      ],
      "name": "referredOf",
      "outputs": [
        {
          "internalType": "address[]",
          "name": "",
          "type": "address[]"
        },
        {
          "internalType": "uint256[][]",
          "name": "",
          "type": "uint256[][]"
        }
      ],
      "stateMutability": "view",
      "type": "function"
    },
    {
      "inputs": [
        {
          "internalType": "address",
          "name": "target",
          "type": "address"
        },
        {
          "internalType": "uint256",
          "name": "tokenId",
          "type": "uint256"
        }
      ],
      "name": "referringOf",
      "outputs": [
        {
          "internalType": "address[]",
          "name": "",
          "type": "address[]"
        },
        {
          "internalType": "uint256[][]",
          "name": "",
          "type": "uint256[][]"
        }
      ],
      "stateMutability": "view",
      "type": "function"
    },
    {
      "inputs": [],
      "name": "renounceOwnership",
      "outputs": [],
      "stateMutability": "nonpayable",
      "type": "function"
    },
    {
      "inputs": [
        {
          "internalType": "address",
          "name": "from",
          "type": "address"
        },
        {
          "internalType": "address",
          "name": "to",
          "type": "address"
        },
        {
          "internalType": "uint256",
          "name": "tokenId",
          "type": "uint256"
        }
      ],
      "name": "safeTransferFrom",
      "outputs": [],
      "stateMutability": "nonpayable",
      "type": "function"
    },
    {
      "inputs": [
        {
          "internalType": "address",
          "name": "from",
          "type": "address"
        },
        {
          "internalType": "address",
          "name": "to",
          "type": "address"
        },
        {
          "internalType": "uint256",
          "name": "tokenId",
          "type": "uint256"
        },
        {
          "internalType": "bytes",
          "name": "data",
          "type": "bytes"
        }
      ],
      "name": "safeTransferFrom",
      "outputs": [],
      "stateMutability": "nonpayable",
      "type": "function"
    },
    {
      "inputs": [
        {
          "internalType": "address",
          "name": "operator",
          "type": "address"
        },
        {
          "internalType": "bool",
          "name": "approved",
          "type": "bool"
        }
      ],
      "name": "setApprovalForAll",
      "outputs": [],
      "stateMutability": "nonpayable",
      "type": "function"
    },
    {
      "inputs": [
        {
          "internalType": "uint256",
          "name": "tokenId",
          "type": "uint256"
        },
        {
          "internalType": "address[]",
          "name": "addresses",
          "type": "address[]"
        },
        {
          "internalType": "uint256[][]",
          "name": "tokenIds",
          "type": "uint256[][]"
        }
      ],
      "name": "setNode",
      "outputs": [],
      "stateMutability": "nonpayable",
      "type": "function"
    },
    {
      "inputs": [
        {
          "internalType": "address[]",
          "name": "addresses",
          "type": "address[]"
        },
        {
          "internalType": "uint256",
          "name": "tokenId",
          "type": "uint256"
        },
        {
          "internalType": "uint256[][]",
          "name": "tokenIds",
          "type": "uint256[][]"
        }
      ],
      "name": "setNodeReferred",
      "outputs": [],
      "stateMutability": "nonpayable",
      "type": "function"
    },
    {
      "inputs": [
        {
          "internalType": "address",
          "name": "target",
          "type": "address"
        },
        {
          "internalType": "uint256",
          "name": "tokenId",
          "type": "uint256"
        },
        {
          "internalType": "uint256[][]",
          "name": "tokenIds",
          "type": "uint256[][]"
        }
      ],
      "name": "setNodeReferredExternal",
      "outputs": [],
      "stateMutability": "nonpayable",
      "type": "function"
    },
    {
      "inputs": [
        {
          "internalType": "address[]",
          "name": "addresses",
          "type": "address[]"
        },
        {
          "internalType": "uint256",
          "name": "tokenId",
          "type": "uint256"
        },
        {
          "internalType": "uint256[][]",
          "name": "tokenIds",
          "type": "uint256[][]"
        }
      ],
      "name": "setNodeReferring",
      "outputs": [],
      "stateMutability": "nonpayable",
      "type": "function"
    },
    {
      "inputs": [
        {
          "internalType": "address",
          "name": "to",
          "type": "address"
        },
        {
          "internalType": "int256",
          "name": "latitude",
          "type": "int256"
        },
        {
          "internalType": "int256",
          "name": "longitude",
          "type": "int256"
        },
        {
          "internalType": "int256",
          "name": "elevation",
          "type": "int256"
        },
        {
          "internalType": "uint256",
          "name": "colorIndex",
          "type": "uint256"
        },
        {
          "internalType": "string",
          "name": "message",
          "type": "string"
        },
        {
          "components": [
            {
              "internalType": "string",
              "name": "h3r6",
              "type": "string"
            },
            {
              "internalType": "string",
              "name": "h3r8",
              "type": "string"
            },
            {
              "internalType": "string",
              "name": "h3r10",
              "type": "string"
            },
            {
              "internalType": "string",
              "name": "h3r12",
              "type": "string"
            }
          ],
          "internalType": "struct GeoReferableNFT.H3Params",
          "name": "h3",
          "type": "tuple"
        },
        {
          "internalType": "bytes",
          "name": "signature",
          "type": "bytes"
        }
      ],
      "name": "signedMint",
      "outputs": [
        {
          "internalType": "uint256",
          "name": "",
          "type": "uint256"
        }
      ],
      "stateMutability": "nonpayable",
      "type": "function"
    },
    {
      "inputs": [
        {
          "internalType": "address",
          "name": "to",
          "type": "address"
        },
        {
          "internalType": "address[]",
          "name": "refAddresses",
          "type": "address[]"
        },
        {
          "internalType": "uint256[]",
          "name": "refTokenIds",
          "type": "uint256[]"
        },
        {
          "internalType": "int256",
          "name": "latitude",
          "type": "int256"
        },
        {
          "internalType": "int256",
          "name": "longitude",
          "type": "int256"
        },
        {
          "internalType": "int256",
          "name": "elevation",
          "type": "int256"
        },
        {
          "internalType": "uint256",
          "name": "colorIndex",
          "type": "uint256"
        },
        {
          "internalType": "string",
          "name": "message",
          "type": "string"
        },
        {
          "components": [
            {
              "internalType": "string",
              "name": "h3r6",
              "type": "string"
            },
            {
              "internalType": "string",
              "name": "h3r8",
              "type": "string"
            },
            {
              "internalType": "string",
              "name": "h3r10",
              "type": "string"
            },
            {
              "internalType": "string",
              "name": "h3r12",
              "type": "string"
            }
          ],
          "internalType": "struct GeoReferableNFT.H3Params",
          "name": "h3",
          "type": "tuple"
        },
        {
          "internalType": "bytes",
          "name": "signature",
          "type": "bytes"
        }
      ],
      "name": "signedMintWithChain",
      "outputs": [
        {
          "internalType": "uint256",
          "name": "",
          "type": "uint256"
        }
      ],
      "stateMutability": "nonpayable",
      "type": "function"
    },
    {
      "inputs": [
        {
          "internalType": "bytes4",
          "name": "interfaceId",
          "type": "bytes4"
        }
      ],
      "name": "supportsInterface",
      "outputs": [
        {
          "internalType": "bool",
          "name": "",
          "type": "bool"
        }
      ],
      "stateMutability": "view",
      "type": "function"
    },
    {
      "inputs": [],
      "name": "symbol",
      "outputs": [
        {
          "internalType": "string",
          "name": "",
          "type": "string"
        }
      ],
      "stateMutability": "view",
      "type": "function"
    },
    {
      "inputs": [
        {
          "internalType": "uint256",
          "name": "tokenId",
          "type": "uint256"
        }
      ],
      "name": "textMetaOf",
      "outputs": [
        {
          "internalType": "bool",
          "name": "isPtr",
          "type": "bool"
        },
        {
          "internalType": "uint256",
          "name": "byteLen",
          "type": "uint256"
        },
        {
          "internalType": "uint256",
          "name": "charLen",
          "type": "uint256"
        }
      ],
      "stateMutability": "view",
      "type": "function"
    },
    {
      "inputs": [
        {
          "internalType": "uint256",
          "name": "tokenId",
          "type": "uint256"
        }
      ],
      "name": "textOf",
      "outputs": [
        {
          "internalType": "string",
          "name": "s",
          "type": "string"
        }
      ],
      "stateMutability": "view",
      "type": "function"
    },
    {
      "inputs": [
        {
          "internalType": "uint256",
          "name": "index",
          "type": "uint256"
        }
      ],
      "name": "tokenByIndex",
      "outputs": [
        {
          "internalType": "uint256",
          "name": "",
          "type": "uint256"
        }
      ],
      "stateMutability": "view",
      "type": "function"
    },
    {
      "inputs": [
        {
          "internalType": "address",
          "name": "owner",
          "type": "address"
        },
        {
          "internalType": "uint256",
          "name": "index",
          "type": "uint256"
        }
      ],
      "name": "tokenOfOwnerByIndex",
      "outputs": [
        {
          "internalType": "uint256",
          "name": "",
          "type": "uint256"
        }
      ],
      "stateMutability": "view",
      "type": "function"
    },
    {
      "inputs": [
        {
          "internalType": "uint256",
          "name": "",
          "type": "uint256"
        }
      ],
      "name": "tokenTreeIndex",
      "outputs": [
        {
          "internalType": "uint256",
          "name": "",
          "type": "uint256"
        }
      ],
      "stateMutability": "view",
      "type": "function"
    },
    {
      "inputs": [
        {
          "internalType": "uint256",
          "name": "tokenId",
          "type": "uint256"
        }
      ],
      "name": "tokenURI",
      "outputs": [
        {
          "internalType": "string",
          "name": "",
          "type": "string"
        }
      ],
      "stateMutability": "view",
      "type": "function"
    },
    {
      "inputs": [
        {
          "internalType": "uint256",
          "name": "tokenId",
          "type": "uint256"
        }
      ],
      "name": "totalDistanceOf",
      "outputs": [
        {
          "internalType": "uint256",
          "name": "",
          "type": "uint256"
        }
      ],
      "stateMutability": "view",
      "type": "function"
    },
    {
      "inputs": [],
      "name": "totalSupply",
      "outputs": [
        {
          "internalType": "uint256",
          "name": "",
          "type": "uint256"
        }
      ],
      "stateMutability": "view",
      "type": "function"
    },
    {
      "inputs": [
        {
          "internalType": "address",
          "name": "from",
          "type": "address"
        },
        {
          "internalType": "address",
          "name": "to",
          "type": "address"
        },
        {
          "internalType": "uint256",
          "name": "tokenId",
          "type": "uint256"
        }
      ],
      "name": "transferFrom",
      "outputs": [],
      "stateMutability": "nonpayable",
      "type": "function"
    },
    {
      "inputs": [
        {
          "internalType": "address",
          "name": "newOwner",
          "type": "address"
        }
      ],
      "name": "transferOwnership",
      "outputs": [],
      "stateMutability": "nonpayable",
      "type": "function"
    },
    {
      "inputs": [
        {
          "internalType": "uint256",
          "name": "tokenId",
          "type": "uint256"
        }
      ],
      "name": "uniqueRefCountOf",
      "outputs": [
        {
          "internalType": "uint256",
          "name": "",
          "type": "uint256"
        }
      ],
      "stateMutability": "view",
      "type": "function"
    },
    {
      "inputs": [],
      "name": "unpause",
      "outputs": [],
      "stateMutability": "nonpayable",
      "type": "function"
    }
  ],
  "bytecode": "0x6101c080604052346200085c5762006c1c80380380916200002182856200087c565b83398101906080818303126200085c576200003c81620008a0565b916200004b60208301620008a0565b6200005960408401620008a0565b606084015190936001600160401b0382116200085c570182601f820112156200085c5780516001600160401b038111620005a45760405193620000a7601f8301601f1916602001866200087c565b818552602082840101116200085c57620000c89160208086019101620008b5565b620000d2620008d8565b9360405194620000e28662000860565b600186526020860190601960f91b8252620000fc620008d8565b62000106620008d8565b815190916001600160401b038211620005a4575f5490600182811c9216801562000851575b6020831014620005855781601f849311620007f1575b50602090601f83116001146200077d575f9262000771575b50508160011b915f199060031b1c1916175f555b8051906001600160401b038211620005a45760015490600182811c9216801562000766575b6020831014620005855781601f84931162000705575b50602090601f83116001146200068e575f9262000682575b50508160011b915f199060031b1c1916176001555b33156200066a57600a8054336001600160a01b0319821681179092556001600160a01b03167f8be0079c531659141344cd1fd0a4f28419497f9722a3daafe3b4186f6b6457e05f80a36200022981620008fc565b61012052620002388762000a9a565b6101405260208151910120958660e0525190209485610100524660a0526040519560208701917f8b73c3c69bb8fe3d512ecc4cf759cc79239f7b179b0ffacaa9a75d522b39400f8352604088015260608701524660808701523060a087015260a0865260c086019580871060018060401b03881117620005a45760408790525190206080523060c0526001600160a01b03169384156200065b57506001600160a01b031691821562000649576001600160a01b031690811562000649576101609384526101809283526101a09182526040513091606082016001600160401b03811183821017620005a457604052602a825260208201916040368437805115620006355760308353805160011015620006355760219360788583015360295b60018111620005d75750620005b857620003e691603a916040519485927f68747470733a2f2f6e6f726f73692e78797a2f6974656d2f00000000000000006020850152620003b0815180926020603888019101620008b5565b8301620003d0602f60f81b938460388401525180936039840190620008b5565b0190603982015203601a8101845201826200087c565b8051906001600160401b038211620005a457825490600182811c9216801562000599575b6020831014620005855781601f84931162000530575b50602090601f8311600114620004c7575f92620004bb575b50508160011b915f199060031b1c19161790555b60405191615ff3938462000be9853960805184615858015260a0518461590f015260c05184615820015260e051846158a7015261010051846158cd01526101205184611498015261014051846114c701525183611b0c015251826144bc015251818181611b8c015261202e0152f35b015190505f8062000438565b5f858152602081209350601f198516905b818110620005175750908460019594939210620004fe575b505050811b0190556200044c565b01515f1960f88460031b161c191690555f8080620004f0565b92936020600181928786015181550195019301620004d8565b909150835f5260205f20601f840160051c810191602085106200057a575b90601f859493920160051c01905b8181106200056b575062000420565b5f81558493506001016200055c565b90915081906200054e565b634e487b7160e01b5f52602260045260245ffd5b91607f16916200040a565b634e487b7160e01b5f52604160045260245ffd5b60405163e22e27eb60e01b815230600482015260146024820152604490fd5b90600f811660108110156200063557835183101562000635576f181899199a1a9b1b9c1cb0b131b232b360811b901a8383016020015360041c90801562000621575f190162000357565b634e487b7160e01b5f52601160045260245ffd5b634e487b7160e01b5f52603260045260245ffd5b60405163e6c4247b60e01b8152600490fd5b63e6c4247b60e01b8152600490fd5b604051631e4fbdf760e01b81525f6004820152602490fd5b015190505f80620001c0565b60015f9081525f8051602062006bfc8339815191529350601f198516905b818110620006ec5750908460019594939210620006d3575b505050811b01600155620001d5565b01515f1960f88460031b161c191690555f8080620006c4565b92936020600181928786015181550195019301620006ac565b60015f529091505f8051602062006bfc833981519152601f840160051c810191602085106200075b575b90601f859493920160051c01905b8181106200074c5750620001a8565b5f81558493506001016200073d565b90915081906200072f565b91607f169162000192565b015190505f8062000159565b5f8080525f8051602062006bdc8339815191529350601f198516905b818110620007d85750908460019594939210620007bf575b505050811b015f556200016d565b01515f1960f88460031b161c191690555f8080620007b1565b9293602060018192878601518155019501930162000799565b5f80529091505f8051602062006bdc833981519152601f840160051c8101916020851062000846575b90601f859493920160051c01905b81811062000837575062000141565b5f815584935060010162000828565b90915081906200081a565b91607f16916200012b565b5f80fd5b604081019081106001600160401b03821117620005a457604052565b601f909101601f19168101906001600160401b03821190821017620005a457604052565b51906001600160a01b03821682036200085c57565b5f5b838110620008c75750505f910152565b8181015183820152602001620008b7565b60405190620008e78262000860565b60068252654e4f524f534960d01b6020830152565b805160209081811015620009795750601f8251116200093757808251920151908083106200092957501790565b825f19910360031b1b161790565b6044906200096b9260405193849263305a27a960e01b845280600485015282519283918260248701528686019101620008b5565b601f01601f19168101030190fd5b906001600160401b038211620005a457600b54926001938481811c9116801562000a8f575b838210146200058557601f811162000a58575b5081601f8411600114620009f057509282939183925f94620009e4575b50501b915f199060031b1c191617600b5560ff90565b015192505f80620009ce565b919083601f198116600b5f52845f20945f905b8883831062000a3d575050501062000a24575b505050811b01600b5560ff90565b01515f1960f88460031b161c191690555f808062000a16565b85870151885590960195948501948793509081019062000a03565b600b5f5284601f845f20920160051c820191601f860160051c015b82811062000a83575050620009b1565b5f815501859062000a73565b90607f16906200099e565b80516020908181101562000ac75750601f8251116200093757808251920151908083106200092957501790565b906001600160401b038211620005a457600c54926001938481811c9116801562000bdd575b838210146200058557601f811162000ba6575b5081601f841160011462000b3e57509282939183925f9462000b32575b50501b915f199060031b1c191617600c5560ff90565b015192505f8062000b1c565b919083601f198116600c5f52845f20945f905b8883831062000b8b575050501062000b72575b505050811b01600c5560ff90565b01515f1960f88460031b161c191690555f808062000b64565b85870151885590960195948501948793509081019062000b51565b600c5f5284601f845f20920160051c820191601f860160051c015b82811062000bd157505062000aff565b5f815501859062000bc1565b90607f169062000aec56fe6080604052600436101562000012575f80fd5b5f3560e01c806301ffc9a7146200037457806304c8ef3c146200036e57806306fdde031462000368578063081812fc146200036257806308463c98146200035c578063095ea7b3146200035657806318160ddd146200035057806323210a91146200034a57806323b872dd14620003445780632e3521b0146200033e5780632f745c5914620003385780633f4ba83a146200033257806342842e0e146200032c5780634f6ccce7146200032657806355c8866e146200032057806356e3df97146200031a5780635c975abb1462000314578063616c5535146200030e5780636352211e14620003085780636498343d146200030257806364f9b0e614620002fc5780636fb7e58814620002f657806370a0823114620002f0578063715018a614620002ea5780637171d93114620002e45780637ecebe0014620002de5780637efd911214620002d85780638456cb5914620002d257806384b0196e14620002cc578063895f192414620002c65780638da5cb5b14620002c05780638e9f29eb14620002ba57806395d89b4114620002b4578063a0b704a814620002ae578063a22cb46514620002a8578063a35391ac14620002a2578063b88d4fde146200029c578063c87b56dd1462000296578063cd743ac71462000290578063d30d968d146200028a578063d56e21011462000284578063e0f07ee6146200027e578063e62b07161462000278578063e8a3d4851462000272578063e985e9c5146200026c578063edfbaad21462000266578063f2fde38b14620002605763fa8e3471146200025a575f80fd5b620021c6565b6200212f565b62002103565b62002098565b62001ff0565b62001fce565b62001f59565b62001f21565b62001ef0565b62001e56565b620019c4565b6200194a565b6200191b565b62001860565b6200177d565b620016cb565b62001694565b6200166a565b620015bf565b6200147c565b62001415565b620013ae565b6200136f565b6200123d565b620011ab565b6200117e565b62001151565b62001110565b62000f79565b62000f09565b62000df2565b62000b2b565b62000af3565b62000aba565b62000a49565b62000a0d565b62000997565b6200090c565b6200085d565b62000802565b620007a5565b62000786565b6200067a565b6200063f565b620005e8565b620004fd565b62000467565b62000391565b6001600160e01b03198116036200038d57565b5f80fd5b346200038d5760203660031901126200038d57620003ed600435620003b6816200037a565b63ffffffff60e01b16639f585a8760e01b811490811562000455575b8115620003f1575b5060405190151581529081906020820190565b0390f35b63780e9d6360e01b8114915081156200040d575b505f620003da565b6380ac58cd60e01b81149150811562000443575b811562000431575b505f62000405565b6301ffc9a760e01b1490505f62000429565b635b5e139f60e01b8114915062000421565b632483248360e11b81149150620003d2565b346200038d5760203660031901126200038d576004355f5260208052602060405f2054604051908152f35b5f9103126200038d57565b5f5b838110620004af5750505f910152565b81810151838201526020016200049f565b90602091620004db815180928185528580860191016200049d565b601f01601f1916010190565b906020620004fa928181520190620004c0565b90565b346200038d575f3660031901126200038d576040515f80546200052081620023d1565b80845290602090600190818116908115620005bb57506001146200055f575b620003ed85620005528187038262000bd4565b60405191829182620004e7565b5f80805293507f290decd9548b62a8d60345a988386fc84ba6bc95484008f6362f93160ef3e5635b838510620005a7575050505081016020016200055282620003ed6200053f565b805486860184015293820193810162000587565b869550620003ed969350602092506200055294915060ff191682840152151560051b82010192936200053f565b346200038d5760203660031901126200038d5760206200060a6004356200240c565b6040516001600160a01b039091168152f35b6001600160a01b038116036200038d57565b600435906200063d826200061c565b565b346200038d5760403660031901126200038d5760206200067060043562000666816200061c565b6024359062002432565b6040519015158152f35b346200038d5760403660031901126200038d576004356200069b816200061c565b60243590620006aa82620037cd565b3315158062000772575b8062000744575b6200072c576200072a926200070b9181906001600160a01b0385811691167f8c5be1e5ebec7d5bd14f71427d1e84f3dd0314c0f7b2291e5b200ac8c7c3b9255f80a45f52600460205260405f2090565b80546001600160a01b0319166001600160a01b03909216919091179055565b005b60405163a9fbf51f60e01b8152336004820152602490fd5b506001600160a01b0381165f90815260056020908152604080832033845290915290205460ff1615620006bb565b506001600160a01b038116331415620006b4565b346200038d575f3660031901126200038d576020600854604051908152f35b346200038d5760203660031901126200038d576004355f52601c602052602060405f2054604051908152f35b60609060031901126200038d57600435620007ec816200061c565b90602435620007fb816200061c565b9060443590565b346200038d576200072a6200081736620007d1565b91620024b5565b9181601f840112156200038d578235916001600160401b0383116200038d57602083818601950101116200038d57565b908160809103126200038d5790565b346200038d5760c03660031901126200038d576001600160401b036084358181116200038d57620008939036906004016200081e565b60a4929192359182116200038d57620008e8620008df620003ed94620008c2620008fc9536906004016200084e565b93620008cd62003847565b620008d762003874565b369162001566565b91369062002637565b906064356044356024356004353362003914565b6040519081529081906020820190565b346200038d5760403660031901126200038d576004356200092d816200061c565b602435906200093c81620029bd565b8210156200096c5760018060a01b03165f52600660205260405f20905f52602052602060405f2054604051908152f35b60405163295f44f760e21b81526001600160a01b039190911660048201526024810191909152604490fd5b346200038d575f3660031901126200038d57620009b362003847565b600a5460ff8160a01c1615620009fb5760ff60a01b1916600a556040513381527f5db9ee0a495bf2e6ff9c91a7834c1ba4fdd244a5e8aa4e537bd38aeae4b073aa90602090a1005b604051638dfc202b60e01b8152600490fd5b346200038d576200072a62000a2236620007d1565b906040519262000a328462000b80565b5f845262000a42838383620024b5565b3362004a53565b346200038d5760203660031901126200038d5760043560085481101562000a9c5760209060085f527ff3f7a9fe364faab93b216da50a3214154f22a0a2b415b23a84c8169e8b636ee30154604051908152f35b6044906040519063295f44f760e21b82525f60048301526024820152fd5b346200038d5760203660031901126200038d57620003ed62000ade60043562002798565b604051918291602083526020830190620004c0565b346200038d5760203660031901126200038d5760043562000b1481620037cd565b505f52600f602052602060405f2054604051908152f35b346200038d575f3660031901126200038d57602060ff600a5460a01c166040519015158152f35b634e487b7160e01b5f52604160045260245ffd5b6001600160401b03811162000b7a57604052565b62000b52565b602081019081106001600160401b0382111762000b7a57604052565b604081019081106001600160401b0382111762000b7a57604052565b60c081019081106001600160401b0382111762000b7a57604052565b90601f801991011681019081106001600160401b0382111762000b7a57604052565b6040519061016082018281106001600160401b0382111762000b7a57604052565b6040519061010082018281106001600160401b0382111762000b7a57604052565b60405190608082018281106001600160401b0382111762000b7a57604052565b604051906200063d8262000b9c565b6001600160401b03811162000b7a5760051b60200190565b929162000c8c8262000c67565b9162000c9c604051938462000bd4565b829481845260208094019160051b81019283116200038d57905b82821062000cc45750505050565b838091833562000cd4816200061c565b81520191019062000cb6565b9080601f830112156200038d57816020620004fa9335910162000c7f565b929162000d0b8262000c67565b9162000d1b604051938462000bd4565b829481845260208094019160051b81019283116200038d57905b82821062000d435750505050565b8135815290830190830162000d35565b9080601f830112156200038d5781359160209162000d718462000c67565b93604062000d83604051968762000bd4565b818652848087019260051b850101938385116200038d57858101925b85841062000db1575050505050505090565b83356001600160401b0381116200038d57820185603f820112156200038d57879162000de68783878680960135910162000cfe565b81520193019262000d9f565b346200038d5760603660031901126200038d576001600160401b036004356024358281116200038d5762000e2b90369060040162000ce0565b916044359081116200038d5762000e4790369060040162000d53565b90825182510362000ef75762000e5c62003874565b62000e6781620037cd565b6001600160a01b0390811633811415918262000edc575b508162000eb7575b5062000ea5576200072a9262000e9f3384848462003ba1565b6200352f565b60405163096dcfe360e31b8152600490fd5b5f90815260056020908152604080832033845290915281205460ff1615915062000e86565b909150339062000eec846200240c565b161415905f62000e7e565b6040516373f8993760e11b8152600490fd5b346200038d5760203660031901126200038d5760206200060a600435620037cd565b60606003198201126200038d576001600160401b03916004358381116200038d578262000f5b9160040162000ce0565b92602435926044359182116200038d57620004fa9160040162000d53565b346200038d5762000f8a3662000f2b565b62000f9792919262003874565b62000fa283620037cd565b6001600160a01b0390811633811415918262000ff9575b508162000fd4575b5062000ea5576200072a92339262003ba1565b5f90815260056020908152604080832033845290915281205460ff1615915062000fc1565b909150339062001009866200240c565b161415905f62000fb9565b9081518082526020808093019301915f5b82811062001034575050505090565b83516001600160a01b03168552938101939281019260010162001025565b9081518082526020808093019301915f5b82811062001072575050505090565b83518552938101939281019260010162001063565b90808251908181526020809101926020808460051b8301019501935f915b848310620010b65750505050505090565b9091929394958480620010d6600193601f198682030187528a5162001052565b9801930193019194939290620010a5565b909162001101620004fa9360408452604084019062001014565b91602081840391015262001087565b346200038d5760403660031901126200038d576200113f60043562001135816200061c565b6024359062002861565b90620003ed60405192839283620010e7565b346200038d5760403660031901126200038d576020620011766024356004356200290a565b604051908152f35b346200038d5760203660031901126200038d57602062001176600435620011a5816200061c565b620029bd565b346200038d575f3660031901126200038d57620011c762003847565b600a80546001600160a01b031981169091555f906001600160a01b03167f8be0079c531659141344cd1fd0a4f28419497f9722a3daafe3b4186f6b6457e08280a3005b9181601f840112156200038d578235916001600160401b0383116200038d576020808501948460051b0101116200038d57565b346200038d5760603660031901126200038d576004356200125e816200061c565b6044356001600160401b0381116200038d57620012809036906004016200120a565b6040516301ffc9a760e01b815263136a7e4560e31b60048201526001600160a01b039390931692602081602481875afa90811562001321575f9162001339575b50156200132757823b156200038d57620012f8925f9283604051809681958294637171d93160e01b8452602435306004860162002a3c565b03925af1801562001321576200130a57005b806200131a6200072a9262000b66565b8062000492565b62002a0c565b604051634deb287b60e11b8152600490fd5b62001360915060203d60201162001367575b62001357818362000bd4565b810190620029f4565b5f620012c0565b503d6200134b565b346200038d5760203660031901126200038d5760043562001390816200061c565b60018060a01b03165f52601e602052602060405f2054604051908152f35b346200038d5760203660031901126200038d5760e0620013d060043562002b37565b60c060405191805183526020810151602084015260408101516040840152606081015160608401526080810151608084015260a081015160a0840152015160c0820152f35b346200038d575f3660031901126200038d576200143162003847565b6200143b62003874565b600a805460ff60a01b1916600160a01b1790556040513381527f62e78cea01bee320cd4e420270b5ea74000d11b0c9f74754ebdbfc544b05a25890602090a1005b346200038d575f3660031901126200038d576200151a620014bd7f00000000000000000000000000000000000000000000000000000000000000006200564d565b620003ed620014ec7f000000000000000000000000000000000000000000000000000000000000000062005757565b62001529620014fa62002c1f565b91604051958695600f60f81b875260e0602088015260e0870190620004c0565b908582036040870152620004c0565b904660608501523060808501525f60a085015283820360c085015262001052565b6001600160401b03811162000b7a57601f01601f191660200190565b92919262001574826200154a565b9162001584604051938462000bd4565b8294818452818301116200038d578281602093845f960137010152565b9080601f830112156200038d57816020620004fa9335910162001566565b346200038d576101003660031901126200038d576001600160401b036004358181116200038d57620015f69036906004016200120a565b91906024358281116200038d57620016139036906004016200120a565b60c4358481116200038d576200162e903690600401620015a1565b9160e4359485116200038d57620003ed9562001653620008fc9636906004016200084e565b9460a4359360843593606435936044359362002c65565b346200038d575f3660031901126200038d57600a546040516001600160a01b039091168152602090f35b346200038d5760203660031901126200038d576060620016b660043562002d3d565b90604051921515835260208301526040820152f35b346200038d575f3660031901126200038d576040515f60018054620016f081620023d1565b8085529160209160018116908115620005bb57506001146200171f57620003ed85620005528187038262000bd4565b60015f90815293507fb10e2d527612073b26eecdfd717e6a320cf44b4afac2b0732d9fcbe2b7fa0cf65b83851062001769575050505081016020016200055282620003ed6200053f565b805486860184015293820193810162001749565b346200038d576101403660031901126200038d576200179b6200062e565b6001600160401b036024358181116200038d57620017be9036906004016200120a565b6044939193358381116200038d57620017dc9036906004016200120a565b919060e4358581116200038d57620017f9903690600401620015a1565b90610104358681116200038d57620018169036906004016200084e565b92610124359687116200038d57620003ed976200183c620008fc9836906004016200081e565b97909660c4359460a43594608435946064359462002d9d565b801515036200038d57565b346200038d5760403660031901126200038d5760043562001881816200061c565b6024356200188f8162001855565b6001600160a01b0382169182156200190257335f9081526005602090815260408083206001600160a01b039094168352929052209015159060ff1981541660ff83161790556040519081527f17307eab39ab6107e8899845ad3d59bd9653f200f220920489ca2b5937696c3160203392a3005b604051630b61174360e31b815260048101849052602490fd5b346200038d5760403660031901126200038d576200113f60043562001940816200061c565b6024359062003076565b346200038d5760803660031901126200038d576004356200196b816200061c565b602435906200197a826200061c565b604435606435926001600160401b0384116200038d57366023850112156200038d57620019b66200072a94369060248160040135910162001566565b9262000a42838383620024b5565b346200038d576020806003193601126200038d57600435620019e681620037cd565b50620019f28162002b37565b90620019fe8162002798565b305f908152601860205260409020829062001b079062001a289083905b905f5260205260405f2090565b5462001a348362004af6565b9562001a408462003514565b62001a53855f52601b60205260405f2090565b549062001a68865f52601c60205260405f2090565b54928a62001a768862004b55565b9560808301519060c084019a8b519162001a978c5f526020805260405f2090565b549360a08701519562001aa962000bf6565b9d8e528d015260409e8f8d01528660608d015260808c015260a08b015260c08a015260e089015283610100890152856101208901526101408801525f60018060a01b03978b5180988192631535037960e11b83526004830162003113565b03818a7f0000000000000000000000000000000000000000000000000000000000000000165afa95861562001321575f9662001e36575b508a8101519760608b83015192015190519162001b5a62000c17565b998a528c8a01528a8901526060880152608087015260a086015260c085015260e084015262001b898462004ba1565b917f0000000000000000000000000000000000000000000000000000000000000000169085519363dc90cc0160e01b85525f858062001bcc84600483016200319c565b0381865afa94851562001321575f9562001e03575b505f9062001c0b62001bf962001c2796979862004ba1565b9362001c0462004cf7565b9062005aaf565b9388518080978194630f24b16d60e41b8352600483016200319c565b03915afa92831562001321575f9362001dda575b508551707b226e616d65223a224e4f524f5349202360781b88820190815290958695909160110162001c6d91620031ef565b701116113232b9b1b934b83a34b7b7111d1160791b815260110162001c9291620031ef565b7111161132bc3a32b93730b62fbab936111d1160711b815260120162001cb89062003208565b62001cc391620031ef565b7f222c226261636b67726f756e645f636f6c6f72223a22464646464646222c226981527f6d616765223a22646174613a696d6167652f7376672b786d6c3b6261736536346020820152600b60fa1b604082015260410162001d2491620031ef565b6f222c2261747472696275746573223a5b60801b815260100162001d4891620031ef565b615d7d60f01b81526002010390601f1991828101825262001d6a908262000bd4565b62001d7462004cf7565b62001d7f9162005aaf565b82517f646174613a6170706c69636174696f6e2f6a736f6e3b6261736536342c00000094810194855293849190601d0162001dba91620031ef565b03908101835262001dcc908362000bd4565b51620003ed819282620004e7565b62001dfb9193503d805f833e62001df2818362000bd4565b810190620030ab565b915f62001c3b565b62001c279495509062001c0b62001bf962001e2a5f943d8087833e62001df2818362000bd4565b97965050509062001be1565b62001e4e9196503d805f833e62001df2818362000bd4565b945f62001b3e565b346200038d576101003660031901126200038d5762001e746200062e565b6001600160401b0360a4358181116200038d5762001e97903690600401620015a1565b60c4358281116200038d5762001eb29036906004016200084e565b9260e4359283116200038d57620003ed9362001ed7620008fc9436906004016200081e565b939092608435906064359060443590602435906200329a565b346200038d5760403660031901126200038d5760206200117660043562001f17816200061c565b6024359062003471565b346200038d5760203660031901126200038d5760043562001f4281620037cd565b505f52600e602052602060405f2054604051908152f35b346200038d5760203660031901126200038d576001600160401b036004358181116200038d5762001f8f9036906004016200081e565b81016040828203126200038d5781358381116200038d578162001fb491840162000ce0565b9260208301359081116200038d576200113f920162000d53565b346200038d5760203660031901126200038d5760206200117660043562003514565b346200038d575f3660031901126200038d57600a5460405163a55bc02d60e01b81526001600160a01b039182166004820152905f90829060249082907f0000000000000000000000000000000000000000000000000000000000000000165afa80156200132157620003ed915f916200207a575b50604051918291602083526020830190620004c0565b6200209191503d805f833e62001df2818362000bd4565b5f62002064565b346200038d5760403660031901126200038d57602060ff620020f7600435620020c1816200061c565b60243590620020d0826200061c565b60018060a01b03165f526005845260405f209060018060a01b03165f5260205260405f2090565b54166040519015158152f35b346200038d5760203660031901126200038d576004355f52601b602052602060405f2054604051908152f35b346200038d5760203660031901126200038d5760043562002150816200061c565b6200215a62003847565b6001600160a01b03908116908115620021ae57600a54826bffffffffffffffffffffffff60a01b821617600a55167f8be0079c531659141344cd1fd0a4f28419497f9722a3daafe3b4186f6b6457e05f80a3005b604051631e4fbdf760e01b81525f6004820152602490fd5b346200038d57620021d73662000f2b565b620021e162003874565b8251905f5b828110620021f057005b620021fc8183620036de565b51515f5b81811062002267575050600190306200223b6200222f62002222848a620036de565b516001600160a01b031690565b6001600160a01b031690565b1462002249575b01620021e6565b62002261620022598285620036de565b513062004e4c565b62002242565b80620022826001926200227b8688620036de565b51620036de565b5130620022986200222f62002222888d620036de565b14620023bf575b305f908152601660205260409020620022ba90829062001a1b565b541580156200237e575b62002351575b6200230f886200230930620022f48562001a1b3060018060a01b03165f52601760205260405f2090565b9060018060a01b03165f5260205260405f2090565b62003796565b30620023246200222f62002222888d620036de565b1462002333575b500162002200565b80620023436200234a92620037cd565b9062004dac565b5f6200232b565b305f8181526016602052604090206200237891906200237290849062001a1b565b62003758565b620022ca565b50305f818152601660205260409020620023b991620023b591620023af90620023a990869062001a1b565b62003739565b62004d67565b1590565b620022c4565b620023ca81620037cd565b506200229f565b90600182811c9216801562002401575b6020831014620023ed57565b634e487b7160e01b5f52602260045260245ffd5b91607f1691620023e1565b6200241781620037cd565b505f908152600460205260409020546001600160a01b031690565b6001600160a01b03919082811630036200246157506200245a905f52600260205260405f2090565b5416151590565b8092503b15620024af57604051906331a9108f60e11b602083015260248201526024815260608101918183106001600160401b0384111762000b7a57620024ab9260405262003808565b5090565b50505f90565b6001600160a01b038281169290919083156200261f575f8581526002602052604090205485906001600160a01b031694336200260c575b8486169586158015620025dd575b6001600160a01b0385165f9081526003602052604090206001815401905562002530856200070b865f52600260205260405f2090565b8383897fddf252ad1be2c89b69c2b068fc378daa952ba7f163c4a11628f55a4df523b3ef5f80a415620025b85750620025698262005c0d565b8503620025a5575b505016918282036200258257505050565b60649350604051926364283d7b60e01b8452600484015260248301526044820152fd5b620025b09162005c64565b5f8462002571565b82828803620025ca575b505062002569565b620025d59162005b9b565b5f82620025c2565b620025e88462004eb4565b6001600160a01b0382165f90815260036020526040902080545f19019055620024fa565b6200261982338862005d98565b620024ec565b604051633250574960e11b81525f6004820152602490fd5b9190916080818403126200038d576200264f62000c38565b926001600160401b0382358181116200038d578262002670918501620015a1565b855260208301358181116200038d57826200268d918501620015a1565b602086015260408301358181116200038d5782620026ad918501620015a1565b604086015260608301359081116200038d57620026cb9201620015a1565b6060830152565b60405190620026e18262000b80565b5f8252565b634e487b7160e01b5f52603260045260245ffd5b805482101562002710575f5260205f2001905f90565b620026e6565b90604051604081018181106001600160401b0382111762000b7a57604052602060018294805484520154910152565b60405190620027548262000b9c565b60208083523683820137565b906200276c826200154a565b6200277b604051918262000bd4565b82815280926200278e601f19916200154a565b0190602036910137565b620027a381620037cd565b50620027b7815f52601a60205260405f2090565b54806200284c5750620027d6620027dc915f52601960205260405f2090565b62002716565b9060208201620027ed815160f81c90565b908162002815575050815160f81c91620028078362002760565b9283525160081b6020830152565b602090620028238362002760565b9483865251828601525f196001601f19850160031b1b019051169181030160031b1b6040830152565b620004fa91506001600160a01b031662003af3565b906001600160a01b03821630036200288f576200288b91506200288481620037cd565b5062003ef3565b9091565b6200288b9162005523565b634e487b7160e01b5f52601160045260245ffd5b600160ff1b8114620028bf575f0390565b6200289a565b600281901b91906001600160fe1b03811603620028bf57565b9060018201809211620028bf57565b9060028201809211620028bf57565b91908201809211620028bf57565b905f8212908115620029b5576001925b60ff5f831294855f14620029ad576002905b17169215620029a6576200294090620028ae565b925b156200299f576200295390620028ae565b905b68056bc75e2d6310000090818102918183041490151715620028bf576402540be40092838102938185041490151715620028bf57620004fa926200299991620028fc565b620028fc565b9062002955565b9262002942565b5f906200292c565b5f926200291a565b6001600160a01b03168015620029dc575f52600360205260405f205490565b6040516322718ad960e21b81525f6004820152602490fd5b908160209103126200038d5751620004fa8162001855565b6040513d5f823e3d90fd5b81835290916001600160fb1b0383116200038d5760209260051b809284830137010190565b93809291606086019060018060a01b03168652602092602087015260606040870152526080840193600560808460051b83010195855f935b86851062002a8757505050505050505090565b9091929394959697607f198282030184528835601e19843603018112156200038d5783018781019190356001600160401b0381116200038d5780871b360383136200038d5762002add8992839260019562002a17565b9a01940195019392969594919062002a74565b6040519060e082018281106001600160401b0382111762000b7a576040525f60c0838281528260208201528260408201528260608201528260808201528260a08201520152565b62002b4162002af0565b5062002b4d81620037cd565b5062002c0a62002b5c62002af0565b916402540be4008082069080830406600168056bc75e2d6310000084048087521615155f1462002c195762002b9190620028ae565b602085015283516002161562002c135762002bac90620028ae565b604084015262002bc4815f52600e60205260405f2090565b5460a084015262002bdd815f52600f60205260405f2090565b5460c084015262002bf6815f52601060205260405f2090565b5460608401525f52601160205260405f2090565b54608082015290565b62002bac565b62002b91565b60405162002c2d8162000b80565b5f8152905f368137565b9062002c438262000c67565b62002c52604051918262000bd4565b82815280926200278e601f199162000c67565b62002ce8979491989592620004fa9a979462002cb562002cc29362002c8962003847565b62002c9362003874565b62002c9f8d8262004084565b62002ca962002cef565b3381529c369162000c7f565b60208c0152369162000cfe565b60408901526060880152608087015260a086015260c085015260e0840152369062002637565b9062004111565b6040519061010082018281106001600160401b0382111762000b7a57604052606060e0835f81528260208201528260408201525f838201525f60808201525f60a08201525f60c08201520152565b62002d4881620037cd565b50805f52601a60205260405f2054908162002d7c5762002d69915062002798565b9062002d77825192620046fe565b5f9291565b5062002d916001600160a01b03821662003af3565b51916001929160a01c90565b9a84868b8998979f9496959d9c9b9a998f908f8f8e8e928c8162002dc062003874565b62002dcb9162004084565b62002dd7908d62004792565b97604051808d60208201809462002dee9262003016565b03601f198101825262002e02908262000bd4565b519020958051906020012062002e19838062003032565b369062002e269262001566565b80519060200120906020840162002e3e908562003032565b369062002e4b9262001566565b80519060200120926040850162002e63908662003032565b369062002e709262001566565b80519060200120946060810162002e879162003032565b369062002e949262001566565b805190602001209562002eb78960018060a01b03165f52601e60205260405f2090565b54976040519b8c9b60208d019e8f9c62002f529d999693909d9c9b9895926101a09b9895926101c08c019f7fe4fd180d538ce7265568593470a0fa24dbb58ef2d63d6224ebf662fb7b1dae9e8d5260018060a01b031660208d015260408c015260608b015260808a015260a089015260c088015260e08701526101008601526101208501526101408401526101608301526101808201520152565b03601f198101825262002f66908262000bd4565b51902062002f74906200485d565b91369062002f829262001566565b62002f8d9162004885565b600a546001600160a01b039081169116036200300457620004fa9a62002cb562002cc29362002ce89b62002fd18e60018060a01b03165f52601e60205260405f2090565b62002fdd815462003067565b905562002ffc62002fed62002cef565b6001600160a01b03909f168f52565b369162000c7f565b604051638baa579f60e01b8152600490fd5b91906001600160fb1b0381116200038d5760051b809282370190565b903590601e19813603018212156200038d57018035906001600160401b0382116200038d576020019181360383136200038d57565b5f198114620028bf5760010190565b906001600160a01b0382163003620030a0576200288b91506200309981620037cd565b5062003fc9565b6200288b916200561a565b6020818303126200038d578051906001600160401b0382116200038d570181601f820112156200038d578051620030e2816200154a565b92620030f2604051948562000bd4565b818452602082840101116200038d57620004fa91602080850191016200049d565b6020815281516020820152602082015160408201526040820151606082015260608201516080820152608082015160a082015260a082015162003165610160918260c0850152610180840190620004c0565b9260c081015160e084015260e081015161010090818501528101516101209081850152810151906101409182850152015191015290565b91909160e080610100830194805184526020810151602085015260408101516040850152606081015160608501526080810151608085015260a081015160a085015260c081015160c08501520151910152565b9062003204602092828151948592016200049d565b0190565b6021545f92916200321982620023d1565b916001908181169081156200328757506001146200323657505050565b909192935060215f527f3a6357012c1a3ae0a17d304c9920310382d968ebcc4b1771f41c6b304205b570905f915b84831062003273575050500190565b818160209254858701520192019162003264565b60ff191683525050811515909102019150565b9697620033f48799620033eb8a85620033e28b620033d38c8c9d9e9f9b620033fb9b9c819e620032c962003874565b6001600160a01b0389165f908152601e6020526040902054938651602080980120620032fa620008d7858062003032565b8881519101209162003313620008d78a87018762003032565b8981519101209362003347620008d762003335620008d760408a018a62003032565b8c815191012097606081019062003032565b8a8151910120966040519c8d9b8c019e8f979491926101609996939c9b9a9794919c6101808a019d7f540a7ab63194954c8886aefd9dac53256da6ed06b8ed1a60c25b8911fa1b381d8b5260018060a01b031660208b015260408a01526060890152608088015260a087015260c086015260e08501526101008401526101208301526101408201520152565b03601f19810183528262000bd4565b5190206200485d565b92369162001566565b9062004885565b600a5462003412906001600160a01b03166200222f565b6001600160a01b039091160362003004576001600160a01b0386165f908152601e60205260409020620004fa976200345a9162003450815462003067565b9055369062002637565b9562003914565b908160209103126200038d575190565b6001600160a01b0316308103620034ab57506200348e81620037cd565b50305f908152601860205260409020905f5260205260405f205490565b60405163d30d968d60e01b81523060048201526024810192909252602090829060449082905afa90811562001321575f91620034e5575090565b620004fa915060203d6020116200350c575b62003503818362000bd4565b81019062003461565b503d620034f7565b6200351f81620037cd565b505f52601360205260405f205490565b90916200353b62003874565b8151915f5b8381106200354f575050505050565b6200355b8184620036de565b51515f5b818110620035a557505060019030620035816200222f620022228487620036de565b146200358f575b0162003540565b6200359f620022598286620036de565b62003588565b80620035b96001926200227b8689620036de565b5130620035cf6200222f62002222888a620036de565b14620036be575b305f908152601660205260409020620035f190829062001a1b565b541580156200368d575b62003666575b6200362b896200230930620022f48562001a1b3060018060a01b03165f52601760205260405f2090565b30620036406200222f62002222888a620036de565b146200364f575b50016200355f565b80620023436200365f92620037cd565b5f62003647565b305f8181526016602052604090206200368791906200237290849062001a1b565b62003601565b50305f818152601660205260409020620036b891620023b591620023af90620023a990869062001a1b565b620035fb565b620036c981620037cd565b50620035d6565b805115620027105760200190565b8051821015620027105760209160051b010190565b9081548082526020809201925f5260205f20915f905b82821062003718575050505090565b83546001600160a01b03168552938401936001938401939091019062003709565b906200063d620037509260405193848092620036f3565b038362000bd4565b8054600160401b81101562000b7a576200377891600182018155620026fa565b60018060a09493941b038084549260031b9316831b921b1916179055565b8054600160401b81101562000b7a57620037b691600182018155620026fa565b819291549060031b91821b915f19901b1916179055565b5f818152600260205260409020546001600160a01b0316908115620037f0575090565b60249060405190637e27328960e01b82526004820152fd5b5f91829160208251920190613a98fa903d906102008083116200383e575b50602060405192808452805f8386013e830101604052565b91505f62003826565b600a546001600160a01b031633036200385c57565b60405163118cdaa760e01b8152336004820152602490fd5b60ff600a5460a01c166200388457565b60405163d93c066560e01b8152600490fd5b9060016001600160801b0380931601918211620028bf57565b9390620004fa9593620038e76200390594620038d8620038f69460a08a5260a08a0190620004c0565b9088820360208a0152620004c0565b908682036040880152620004c0565b908482036060860152620004c0565b916080818403910152620004c0565b959094939562003925838762004ed7565b600d871162003ae1576200395c7f54cce22e97703a82889920af5a962729597b16347227923307915d1e8a7ed7e2935f976200290a565b9687946200398262003976600d546001600160801b031690565b6001600160801b031690565b62003995875f52600e60205260405f2090565b5587620039aa875f52600f60205260405f2090565b55620039be865f52601060205260405f2090565b55620039d2855f52601160205260405f2090565b5562003a01620039ea600d546001600160801b031690565b6001600160801b03165f52601f60205260405f2090565b5462003a14855f526020805260405f2090565b5562003a2c620039ea600d546001600160801b031690565b62003a38815462003067565b905562003a7762003a5b62003a55600d546001600160801b031690565b62003896565b6001600160801b03166001600160801b0319600d541617600d55565b62003a83848262004f49565b305f908152601860205260409020429062003aa090869062001a1b565b5562003aad85856200509a565b62003adb825192602081015190606060408201519101519160405195869560018060a01b03169986620038af565b0390a490565b6040516326e1723360e01b8152600490fd5b601f813b5f19810160016040519482865260208601903c82010160405290565b8151916001600160401b03831162000b7a57600160401b831162000b7a57815483835580841062003b78575b5062003b536020809201925f5260205f2090565b905f5b84811062003b65575050505050565b8351838201559281019260010162003b56565b825f528360205f2091820191015b81811062003b95575062003b3f565b5f815560010162003b86565b939291909362003bb9855f52601260205260405f2090565b54815192908015155f5b85811062003bff575050505050506200063d91924262003bf88262001a1b3060018060a01b03165f52601860205260405f2090565b5562004dac565b818062003de7575b62003d85575b6001903062003c256200222f62002222848a620036de565b0362003d3d575b305f90815260146020526040902062003c47908b9062001a1b565b5415801562003cf6575b62003cb9575b62003cb262003c678287620036de565b51305f90815260156020526040902062003cac9062003c88908e9062001a1b565b62003c9862002222868c620036de565b60018060a01b03165f5260205260405f2090565b62003b13565b0162003bc3565b305f90815260146020526040902062003cf09062003cd9908c9062001a1b565b62003ce962002222848a620036de565b9062003758565b62003c57565b50305f90815260146020526040902062003d3790620023b59062003d1c908d9062001a1b565b620023af62003d3062002222868c620036de565b9162003739565b62003c51565b62003d5762003d51620022228389620036de565b620051af565b62003d7f62003d6b620022228389620036de565b62003d778388620036de565b5190620052af565b62003c2c565b5f62003d928286620036de565b51515f5b81811062003db8575b505062003c0d57604051630e8ae10d60e11b8152600490fd5b8562003dca826200227b878b620036de565b511462003dda5760010162003d96565b50505060015f8062003d9f565b503062003dfd6200222f620022228489620036de565b1462003c07565b60405162003e128162000b9c565b60018152805f5b60208082101562003e365790606060209282850101520162003e19565b50505090565b60405162003e4a8162000b80565b5f815290565b9062003e5c8262000c67565b62003e6b604051918262000bd4565b828152809262003e7e601f199162000c67565b01905f5b82811062003e8f57505050565b80606060208093850101520162003e82565b90604051918281549182825260209260208301915f5260205f20935f905b82821062003ed8575050506200063d9250038362000bd4565b85548452600195860195889550938101939091019062003ebf565b305f90815260166020526040902090919062003f2b9092805f5260209360205260409062003f3360405f2060405194858092620036f3565b038462000bd4565b62003f3f835162003e50565b945f5b845181101562003fc157305f90815260176020526040812084825283528490206001919062003fa09062003f9a906001600160a01b0362003f84858b620036de565b511660018060a01b03165f5260205260405f2090565b62003ea1565b62003fac828a620036de565b5262003fb98189620036de565b500162003f42565b505050509190565b305f90815260146020526040902090919062003f2b9092805f526020936020526040906200400160405f2060405194858092620036f3565b6200400d835162003e50565b945f5b845181101562003fc157305f908152601560205260408120848252835284902060019190620040529062003f9a906001600160a01b0362003f84858b620036de565b6200405e828a620036de565b526200406b8189620036de565b500162004010565b9190811015620027105760051b0190565b91908015620040e3575f5b8181106200409d5750509050565b620040aa81838662004073565b35620040b6816200061c565b306001600160a01b0390911603620040d1576001016200408f565b6040516305f9154b60e11b8152600490fd5b60405163321e083f60e21b8152600490fd5b60405190620041048262000b9c565b6001825260203681840137565b6020810151516040820151510362000ef757600d60c08201511162003ae1576200414560608201516080830151906200290a565b915f915f91602082015151936200415c8562002c37565b935f905b868210620044375750506200417590620028de565b60a0620041916200418a6040860151620036d0565b5162002b37565b01516103e8620041a9825f52601f60205260405f2090565b541015620044255783516200425f9290620041cf9089906001600160a01b031662004f49565b81620041e3895f52600e60205260405f2090565b55620041f7885f52600f60205260405f2090565b5560a084015162004210885f52601060205260405f2090565b5560c084015162004229885f52601160205260405f2090565b556200423d815f52601f60205260405f2090565b5462004250885f526020805260405f2090565b555f52601f60205260405f2090565b6200426b815462003067565b9055305f90815260186020526040902042906200428a90879062001a1b565b5560e08201906200429d8251876200509a565b6200430c620042ab620040f5565b620042ca30620042bb83620036d0565b6001600160a01b039091169052565b87620042d562003e04565b916040870151620042e684620036d0565b52620042f283620036d0565b50865162000e9f906001600160a01b031684848462003ba1565b6200431b6040840151620036d0565b516200432f875f52601260205260405f2090565b55857f54cce22e97703a82889920af5a962729597b16347227923307915d1e8a7ed7e26200436c620043656040870151620036d0565b51620037cd565b855194518451602086015160408088015160609098015190516001600160a01b039586169995909516978594620043a994929391929086620038af565b0390a45f5b838110620043bd575050505090565b80620043d06001926040850151620036de565b51867ff1c7cdf5ea1ba4c70d030a548b717bb1f6ba891dd465f0995448e6fcb3fb1f6b6200441b620044038589620036de565b51604080519182528615602083015290918291820190565b0390a301620043ae565b604051637257dd1d60e01b8152600490fd5b62004447826040870151620036de565b51916200445483620037cd565b50620044608362002b37565b60c0810151858111620046f5575b5060208181015160409283015160608a015160808b01519451631271852560e01b81526004810193909352602483019190915260448201526064810192909252816084816001600160a01b037f0000000000000000000000000000000000000000000000000000000000000000165afa90811562001321575f91620046d1575b5080620044fc838a620036de565b52811580620046ab575b62004674575b8281116200466a575b50826200452d600193945f52601b60205260405f2090565b62004539815462003067565b9055807f0b2fbe6404bdceef1a862b90d41147d59bfe66733d37e9d5ce853edc991917216200458562004574835f52601b60205260405f2090565b546040519081529081906020820190565b0390a2620045bf620023b5620045b8620045a7845f52601d60205260405f2090565b8a516001600160a01b031662003c98565b5460ff1690565b620045ce575b50019062004160565b62004607620045fa620045e9835f52601d60205260405f2090565b89516001600160a01b031662003c98565b805460ff19166001179055565b6200461a815f52601c60205260405f2090565b62004626815462003067565b90557fed19e23ad359b34f693c83c0b8af01ccb5d1022779c2a73aa64e00903f135b686200466062004574835f52601c60205260405f2090565b0390a25f620045c5565b9150600162004515565b62004687845f52601360205260405f2090565b548111156200450c5780620046a4855f52601360205260405f2090565b556200450c565b50620046c0620022228360208a0151620036de565b6001600160a01b0316301462004506565b620046ee915060203d6020116200350c5762003503818362000bd4565b5f620044ee565b94505f6200446e565b905f80928051925b84848610156200478a57602086840101515f1a956001809101940195608081101562004738575b505093919362004706565b91939160e08110156200475c5750506200475290620028de565b915b5f806200472d565b60f011156200477857506200477190620028ed565b9162004754565b600401809111620028bf579162004754565b509250509150565b6200479d8262000c67565b91620047ad604051938462000bd4565b808352620047bb8162000c67565b602092601f19928585019284013684375f5b8181106200482657505050906040518093602082018096519094915f5b8281106200480e575050505062004808920390810183528262000bd4565b51902090565b835187529581019587945092810192600101620047ea565b8062004836600192848662004073565b3562004842816200061c565b828060a01b031662004855828a620036de565b5201620047cd565b6042906200486a6200581d565b906040519161190160f01b8352600283015260228201522090565b620004fa91620048959162005936565b9092919262005992565b908160209103126200038d5751620004fa816200037a565b620004fa939260809260018060a01b031682525f602083015260408201528160608201520190620004c0565b6001600160a01b039182168152911660208201526040810191909152608060608201819052620004fa92910190620004c0565b3d1562004945573d906200492a826200154a565b916200493a604051938462000bd4565b82523d5f602084013e565b606090565b91929092833b6200495c575b50505050565b62004982916020916040519384928392630a85bd0160e11b9788855260048501620048b7565b03815f6001600160a01b0388165af15f918162004a1b575b50620049dd5782620049ab62004916565b8051919082620049d657604051633250574960e11b81526001600160a01b0383166004820152602490fd5b6020915001fd5b6001600160e01b03191603620049f857505f80808062004956565b604051633250574960e11b81526001600160a01b03919091166004820152602490fd5b62004a4391925060203d60201162004a4b575b62004a3a818362000bd4565b8101906200489f565b905f6200499a565b503d62004a2e565b92939193843b62004a66575b5050505050565b60209162004a8b6040519485938493630a85bd0160e11b9889865260048601620048e3565b03815f6001600160a01b0388165af15f918162004ad0575b5062004ab45782620049ab62004916565b6001600160e01b03191603620049f857505f8080808062004a5f565b62004aee91925060203d60201162004a4b5762004a3a818362000bd4565b905f62004aa3565b62004b10608062004b078362002b37565b01519162005a2b565b908062004b35575b62004b21575090565b6080915062004b309062002b37565b015190565b505f818152600260205260409020546001600160a01b0316151562004b18565b62004b609062005a2b565b908062004b81575b62004b7257505f90565b5f52601b60205260405f205490565b505f818152600260205260409020546001600160a01b0316151562004b68565b805f917a184f03e93ff9f4daa797ed6e38ed64bf6a1f0100000000000000008082101562004ce8575b506d04ee2d6d415b85acef81000000008083101562004cd8575b50662386f26fc100008083101562004cc8575b506305f5e1008083101562004cb8575b506127108083101562004ca8575b50606482101562004c97575b600a8092101562004c8c575b60019081602162004c416001870162002760565b95860101905b62004c54575b5050505090565b5f19019083906f181899199a1a9b1b9c1cb0b131b232b360811b8282061a83530491821562004c865791908262004c47565b62004c4d565b916001019162004c2d565b919060646002910491019162004c21565b6004919392049101915f62004c15565b6008919392049101915f62004c07565b6010919392049101915f62004bf7565b6020919392049101915f62004be4565b60409350810491505f62004bca565b60405190606082018281106001600160401b0382111762000b7a57604052604082527f6768696a6b6c6d6e6f707172737475767778797a303132333435363738392b2f6040837f4142434445464748494a4b4c4d4e4f505152535455565758595a61626364656660208201520152565b905f5b825181101562004da5576001600160a01b038062004d898386620036de565b51169083161462004d9d5760010162004d6a565b505050600190565b5050505f90565b7f81bed52c04e8cd65796985202162bad7e20a8ffaa732fe2e0a0bc79f687e4d6662004e0f62004e2d62004e4762004e1e9562004de98662003fc9565b62004df78895929562003ef3565b99909160405197889760808952608089019062001014565b90878203602089015262001087565b90858203604087015262001014565b83810360608501526001600160a01b039091169662001087565b0390a3565b306001600160a01b039091160362004eb1578051905f5b82811062004e7057505050565b807ff8e1a15aba9398e019f0b49df1a4fde98ee17ae345cb5f6b5e2c27f5033e8ce7602062004ea260019486620036de565b51604051908152a10162004e63565b50565b62004ec7905f52600460205260405f2090565b80546001600160a01b0319169055565b63055d4a7f19811290811562004f3a575b5062004f2857630aba94ff19811290811562004f19575b5062004f0757565b60405163016cb17f60e71b8152600490fd5b630aba95009150135f62004eff565b60405163c2df0dc560e01b8152600490fd5b63055d4a809150135f62004ee8565b906040519062004f598262000b80565b5f82526001600160a01b0383811680156200261f575f838152600260205260409020546001600160a01b0316918216801592831593846200506b575b6001600160a01b0388165f9081526003602052604090206001815401905562004fcb886200070b885f52600260205260405f2090565b8584847fddf252ad1be2c89b69c2b068fc378daa952ba7f163c4a11628f55a4df523b3ef5f80a415620050465750620050048462005c0d565b0362005034575b6200501c576200063d92336200494a565b6040516339e3563760e11b81525f6004820152602490fd5b62005040828562005c64565b6200500b565b8483830362005058575b505062005004565b620050639162005b9b565b5f8462005050565b620050768662004eb4565b6001600160a01b0382165f90815260036020526040902080545f1901905562004f95565b90620050a681620046fe565b603681116200519d5781516036106200514957505f9162005122620051309280516020908181106001146200513357604082840151930151828281030160031b1c9060f81b17905b620050f862000c58565b92835282015262005111835f52601960205260405f2090565b906020600191805184550151910155565b5f52601a60205260405f2090565b55565b908092015160081c9060f81b17908590620050ee565b6200063d9262005192929091906001600160a01b03906200516a9062005caa565b169060a01b1762005183825f52601a60205260405f2090565b555f52601960205260405f2090565b60015f918281550155565b60405163d88051b560e01b8152600490fd5b803b1562005285576040516301ffc9a760e01b808252600482018190526020926001600160a01b031691611388919084816024818787fa5f918162005261575b506200520757604051636734792560e01b8152600490fd5b156200524f5760405190815263136a7e4560e31b60048201529183918391602491839190fa62005235575050565b8162004eb192903d10620013675762001357818362000bd4565b604051636734792560e01b8152600490fd5b6200527d919250863d8811620013675762001357818362000bd4565b905f620051ef565b6040516309ee12d560e01b8152600490fd5b908160209103126200038d5751620004fa816200061c565b60648251116200537a5781515f915b818310620052cc5750505050565b620052db8385969495620036de565b519460409485516331a9108f60e11b815260208082806200530560049c8d83019190602083019252565b03816001600160a01b038916611388fa918262005345575b505062005334578551630d6dc16160e11b81528790fd5b9395509350600190920191620052be565b816200536992903d1062005372575b62005360818362000bd4565b81019062005297565b505f806200531d565b503d62005354565b6040516306da9f0160e11b8152600490fd5b81601f820112156200038d57805190602091620053a98162000c67565b936040620053bb604051968762000bd4565b828652848601918560059460051b860101948186116200038d57868101935b868510620053ed57505050505050505090565b84516001600160401b0381116200038d57820183603f820112156200038d5788810151906200541c8262000c67565b916200542b8751938462000bd4565b808352868b8401918a1b830101918683116200038d5791878c94929593015b81811062005463575050829350815201940193620053da565b80518652948401948c94016200544a565b9190916040818403126200038d578051926001600160401b03938481116200038d5782019381601f860112156200038d57845194602095620054b68162000c67565b91620054c6604051938462000bd4565b818352878084019260051b820101918583116200038d5788809201905b838210620055075750505050948301519081116200038d57620004fa92016200538c565b828091835162005517816200061c565b815201910190620054e3565b60405163327cd87360e11b602082015230602482015260448101929092526200556691906200556082606481015b03601f19810184528362000bd4565b62003808565b90156200560f57905f6200558f92604051809481926370783f7360e11b835260048301620004e7565b0381305afa91825f915f94620055e4575b50620055be57509050620055b362002c1f565b90620004fa62003e3c565b620055ce620023b5848362005cfa565b620055d7579190565b509050620055b362002c1f565b9093506200560791503d805f833e620055fe818362000bd4565b81019062005474565b925f620055a0565b50620055b362002c1f565b6040516328d4e46b60e21b6020820152306024820152604481019290925262005566919062005560826064810162005551565b60ff81146200568b5760ff811690601f821162005679576200566e62002745565b918252602082015290565b604051632cd44ac360e21b8152600490fd5b50604051600b54815f6200569f83620023d1565b80835292602090600190818116908115620057315750600114620056ce575b5050620004fa9250038262000bd4565b915092600b5f527f0175b7a638427703f0dbe7bb9bbf987a2551717b34e79f33b5b1008d1fa01db9935f925b828410620057185750620004fa9450505081016020015f80620056be565b85548785018301529485019486945092810192620056fa565b91505060209250620004fa94915060ff191682840152151560051b8201015f80620056be565b60ff8114620057785760ff811690601f821162005679576200566e62002745565b50604051600c54815f6200578c83620023d1565b80835292602090600190818116908115620057315750600114620057ba575050620004fa9250038262000bd4565b915092600c5f527fdf6966c971051c3d54ec59162606531493a51404a002842f56009d7e5cf4a8c7935f925b828410620058045750620004fa9450505081016020015f80620056be565b85548785018301529485019486945092810192620057e6565b307f00000000000000000000000000000000000000000000000000000000000000006001600160a01b031614806200590c575b156200587a577f000000000000000000000000000000000000000000000000000000000000000090565b60405160208101907f8b73c3c69bb8fe3d512ecc4cf759cc79239f7b179b0ffacaa9a75d522b39400f82527f000000000000000000000000000000000000000000000000000000000000000060408201527f000000000000000000000000000000000000000000000000000000000000000060608201524660808201523060a082015260a08152620048088162000bb8565b507f0000000000000000000000000000000000000000000000000000000000000000461462005850565b81519190604183036200596957620059629250602082015190606060408401519301515f1a9062005d13565b9192909190565b50505f9160029190565b600411156200597e57565b634e487b7160e01b5f52602160045260245ffd5b6200599d8162005973565b80620059a7575050565b620059b28162005973565b60018103620059cd5760405163f645eedf60e01b8152600490fd5b620059d88162005973565b60028103620059fa5760405163fce698f760e01b815260048101839052602490fd5b8062005a0860039262005973565b1462005a115750565b6040516335e2f38360e21b81526004810191909152602490fd5b62005a37903062003076565b5f5b825181101562005aa657306001600160a01b0362005a588386620036de565b5116148062005a8f575b62005a705760010162005a39565b9062005a7d9250620036de565b51805115620027105760200151600191565b5062005a9c8183620036de565b5151151562005a62565b5050505f905f90565b9081511562005b8f5762005ae362005add62005ad762005ad08551620028ed565b6003900490565b620028c5565b62002760565b916020830191818251830160208101918251935f84525b82821062005b3c575050505251600390066001811462005b2a5760021462005b20575090565b603d905f19015390565b50603d90815f19820153600119015390565b9091956004906003809401938451600190603f9082828260121c16880101518553828282600c1c16880101518386015382828260061c168801015160028601531685010151908201530195919062005afa565b5050620004fa620026d2565b905f9162005ba981620029bd565b82845260209060078252604093848620549360018060a01b03168652600683528486209382810362005bea575b508552600782528484812055845252812055565b828752848452858720548188528087892055875260078452858720555f62005bd6565b600854815f5260096020528060405f2055600160401b81101562000b7a576001810180600855811015620027105760085f527ff3f7a9fe364faab93b216da50a3214154f22a0a2b415b23a84c8169e8b636ee30155565b9062005c7082620029bd565b5f19810192908311620028bf5760018060a01b03165f52600660205260405f20825f526020528060405f20555f52600760205260405f2055565b6040519061014990818301908382106001600160401b0383111762000b7a57602062005ce392859462005e7586398181520190620004c0565b03905ff0801562001321576001600160a01b031690565b5190518114908162005d0a575090565b60649150111590565b91907f7fffffffffffffffffffffffffffffff5d576e7357a4501ddfe92f46681b20a0841162005d8d579160209360809260ff5f9560405194855216868401526040830152606082015282805260015afa1562001321575f516001600160a01b0381161562005d8357905f905f90565b505f906001905f90565b5050505f9160039190565b6001600160a01b0390828216801515908162005e06575b501562005dbc5750505050565b1662005ddb57604051637e27328960e01b815260048101839052602490fd5b60405163177e802f60e01b81526001600160a01b039190911660048201526024810191909152604490fd5b8284168082149250821562005e40575b50811562005e27575b505f62005daf565b9050845f5260046020528260405f205416145f62005e1f565b9091505f52600560205260ff62005e6a8560405f209060018060a01b03165f5260205260405f2090565b5416905f62005e1656fe60806040523461008e57610149803803809161001a826100a6565b608039602081608001911261008e576080516001600160401b0380821161008e5782609f8301121561008e578160800151908111610092576040519261006a601f8301601f1916602001856100cc565b81845260a0828401011161008e576100899160a06020850191016100ef565b610110565b5f80fd5b634e487b7160e01b5f52604160045260245ffd5b6080601f91909101601f19168101906001600160401b0382119082101761009257604052565b601f909101601f19168101906001600160401b0382119082101761009257604052565b5f5b8381106101005750505f910152565b81810151838201526020016100f1565b60405161014460218260208101945f865261013481518092602086860191016100ef565b81010360018101845201826100cc565b5190f3fea26469706673582212204d8bc5cd306f10b24167a14fd2f63ca69ba3f2fd3fcb53fce59255ddd20d6a9a64736f6c63430008180033290decd9548b62a8d60345a988386fc84ba6bc95484008f6362f93160ef3e563b10e2d527612073b26eecdfd717e6a320cf44b4afac2b0732d9fcbe2b7fa0cf6",
  "linkReferences": {},
  "deployedLinkReferences": {}
}